:1000000000800020BD01000005340000BD33000069
:10001000BD330000BD330000BD330000BD33000020
:10002000BD330000BD330000BD33000005340000C7
:1000300005340000BD330000754D0000794E00000E
:1000400005340000053400000534000005340000CC
:1000500005340000053400000534000005340000BC
:1000600005340000053400000534000005340000AC
:10007000053400000534000005340000053400009C
:10008000053400000534000005340000053400008C
:10009000053400000534000005340000053400007C
:1000A000192A0000252A000005340000053400004C
:1000B000053400000534000005340000053400005C
:1000C000053400000534000005340000053400004C
:1000D000053400000534000005340000053400003C
:1000E000053400000534000005340000053400002C
:1000F00005340000F55300000534000021550000D0
:10010000053400004D5600000534000005340000A1
:1001100005340000053400000534000005340000FB
:1001200005340000053400000534000005340000EB
:1001300005340000053400000534000005340000DB
:1001400005340000053400000534000005340000CB
:1001500005340000053400000534000005340000BB
:1001600005340000E13900000534000005340000CA
:10017000053400000534000005340000053400009B
:10018000053400000534000005340000053400008B
:10019000053400000534000005340000053400007B
:1001A000053400000534000005340000053400006B
:1001B0000534000005340000314B0000564B4CF272
:1001C000205210B51A804DF628121A8000BF00BFC9
:1001D00003F01CF9514B4FF010621A60504A9A60BC
:1001E000504ADA60504A136813F4807304D14F49BF
:1001F0000B604FF4A85313604D4B1A78110703D5C9
:100200001A7842F008021A704A4B4B492A221A7097
:100210004A4A4B4B8B4204D252F8040F43F8040B6A
:10022000F8E7484B484900228B4202D243F8042B9E
:10023000FAE74649464A002352F8230041F82300D2
:1002400001336F2BF8D1434B434A802103F8011B44
:100250009342FBD1414B3D4A1A60414B8A221A70AE
:10026000A3F5805324225A70A0221A709A7992071B
:10027000FCD59A79D406FCD43A4A937903F00C035E
:10028000082B384BF9D105221A7143225A719A79F9
:100290009006FCD5334A9179324B4906FBD5324A58
:1002A0004FF0817111600521516020221A709A79F6
:1002B00002F00C020C2AFAD12C4B2D4A1A602D4B5D
:1002C0002D4A1A6000225A60072243F8042C2B4A58
:1002D000C3F80C2D62B603F055FA144B1B68DA070D
:1002E00005D5274803F0D2F9264B274A1A60274B39
:1002F0001B785B0609D5234C234B22689A4204D114
:100300001F4803F0C3F90023236007F049FB03F003
:1003100083F804F011FEFEE70E2005403080044013
:10032000823F04000100002B10D0034014D0034092
:1003300002D0074000E00740AC500020F4AC0000C1
:1003400098430020B0500020A8670020003800200B
:100350000000000000E400E05FE400E008ED00E0E1
:1003600000500640004006404480044004800440A1
:10037000C010050014E000E03F190100000020203B
:1003800090299B5B1CE00340A5C3945A00F00740F2
:10039000FFFFFFFFFFFFFFFFFFFFFFFFFFFFFFFF6D
:1003A000FFFFFFFFFFFFFFFFFFFFFFFFFFFFFFFF5D
:1003B000FFFFFFFFFFFFFFFFFFFFFFFFFFFFFFFF4D
:1003C000FFFFFFFFFFFFFFFFFFFFFFFFFFFFFFFF3D
:1003D000FFFFFFFFFFFFFFFFFFFFFFFFFFFFFFFF2D
:1003E000FFFFFFFFFFFFFFFFFFFFFFFFFFFFFFFF1D
:1003F000FFFFFFFFFFFFFFFFFFFFFFFFFFFFFFFF0D
:10040000FFFFFFFFFFFFFFFFFFFFFFFFDEF9FFFF23
:1004100010B5054C237833B9044B13B10448AFF33E
:1004200000800123237010BDB050002000000000A8
:10043000F8AC0000084B10B51BB108490848AFF3F1
:1004400000800848036803B910BD074B002BFBD0A0
:10045000BDE81040184700BF00000000B450002065
:10046000F8AC0000AC50002000000000002310B4E5
:10047000104C4172026104600372C36041B11946BD
:1004800000E0026942F82310427A01339A42F8DC14
:10049000094B1A680AB90AE01A465369002BFBD1C6
:1004A0005061002343618380C38010BC7047186093
:1004B000F7E700BF988300005465002000211E4B21
:1004C000036070B400F1180209240B464472026103
:1004D0000172C16000E0026942F82310427A0133E0
:1004E0009A42F8DC154B1A680AB922E01A46536999
:1004F000002BFBD150610023FF210122104E06602A
:1005000000240025C0E91E4543618380C38080F834
:10051000703080F85830C16501664166816680F8A8
:100520006C2080F86D2080F86E2080F86F2070BC01
:1005300070471860DFE700BF988300005465002013
:100540008CA8000038B51E4B1E4C1F484FF080424F
:100550001A60AF2104F0D8F9204600F03BFD204698
:100560005522202100F00AFD38B1E28842F0040251
:1005700092B22421204600F001FD6A211148134D5A
:1005800000F0EEFD0F4800F0A9FD002211460D48D5
:1005900000F0ACFDE2880B48242122F0100200F0AC
:1005A000EDFC0B4AFF231046D365EB6502F016FC09
:1005B000284602F013FC074B4FF080421A6038BD0A
:1005C00088E100E05C5200200082FF1F18530020E9
:1005D0009852002008E100E02DE9F041584B594EB7
:1005E000594F1C683A683368DFF8848153F8221049
:1005F0005648574D1834A4B2214409B202F03CFACF
:100600003968D8F8003032680B4485FB0310D917DD
:10061000C1EBA00101EB4101A3EBC1034D4852F82E
:100620002310214409B202F027FAD8F800103B68E1
:10063000326803EB410385FB0310D917C1EBA0011E
:1006400001EB4101A3EBC103434852F823102144BD
:1006500009B202F011FAD8F800303968326803EBB9
:1006600043030B4485FB0310D917C1EBA00101EB39
:100670004101A3EBC103394852F82310214409B2C8
:1006800002F0FAF9D8F800103B68326803EB8103F6
:1006900085FB0310D917C1EBA00101EB4101A3EBCE
:1006A000C1032F4852F82310214409B202F0E4F9A3
:1006B000D8F800303968326803EB83030B4485FBBC
:1006C0000310D917C1EBA00101EB4101A3EBC1035A
:1006D000244852F82310214409B202F0CDF9D8F889
:1006E00000303968326803EB430301EB430385FBB9
:1006F0000310D917C1EBA00101EB4101A3EBC1032A
:10070000194852F82310214409B202F0B5F9D8F87B
:1007100000303A6831681548C3EBC303134485FBC6
:100720000325DA17C2EBA50505EB4505A3EBC503C9
:1007300051F82310214409B2BDE8F04102F09CB900
:10074000EC500020884400209052002034510020BA
:10075000ABAAAA2A5C5100208451002068520020D4
:10076000AC510020D4510020FC5100202452002024
:100770007C440020F8B5142002F0A2FD04461520A8
:1007800002F09EFD7E4A7F4D7F4E804F00EB400081
:10079000C00082FB001304EB440104EB810182FBE7
:1007A000012EC017CC172A68C4EB6E24C0EB63235C
:1007B0000133A24234603B60754E02D001222C60AE
:1007C0003270744A1168994202D00121136031706D
:1007D000022002F073FF002800F0AD8072B66E4B6D
:1007E0001A7F02F0FF010AB100221A7762B60029CF
:1007F00049D072B647F6FF744FF40041B3F91E506A
:10080000B3F92020DC83198462B682EAE27385EAB8
:10081000E570A3EBE273A0EBE5709842B8BF184611
:1008200006F04CFE5D4906F051FF5D4906F090FD73
:100830005C4906F04BFF5C4A5C4B15681F68044638
:100840003946284606F084FD214607F047F800287F
:1008500040F086803946284606F07CFD214607F0A8
:100860001FF8534C002840F083802168514BCA1771
:1008700083FB0103C2EBA30303EB4303A1EBC3031D
:1008800001222360327072B64B4B1A7F02F0FF01D7
:100890000AB100221A7762B6002944D072B647F630
:1008A000FF744FF40041B3F91E50B3F92020DC83EC
:1008B000198462B682EAE27385EAE570A3EBE2731B
:1008C000A0EBE5709842B8BF184606F0F7FD334933
:1008D00006F0FCFE394906F03BFD394906F0F6FE0C
:1008E000364906F035FD374906F03CFE364906F03C
:1008F000EDFE002106F02EFD06F0FAFF0138022879
:1009000098BF324B324A94BF53F8201031491160DE
:1009100001233370FFF760FE002333700220BDE82F
:10092000F84002F0DFBE3378002BF3D10220BDE89F
:10093000F84002F0D7BE1E4C1E4A23685B0082FBC3
:100940000321DA17C2EBA102012502EB4202A3EB5D
:10095000C203294606202360357002F0A9FE3DE758
:10096000134C002301210320236002F0A1FE7CE749
:10097000236801218B400620236002F099FE74E772
:10098000FF07E07F98530020EC5000207C440020BB
:10099000F050002078440020F453002000FEFF4671
:1009A000ABCF553E85103D3E84440020804400205E
:1009B00090520020ABAAAA2A185400208638563E2E
:1009C000D0AD3D3E000040405C420E3F1C85000023
:1009D00088440020BC8400002DE9F04F5F4B604E3E
:1009E0001A68604B3360002383B0737233613372D3
:1009F000F3600AB9A5E11A465369002BFBD1566191
:100A00000024DFF8A0A1584B55487461B480F480ED
:100A1000336000F0B3FC224621465046FFF726FD26
:100A2000524D53488AF8184022462146CAF81C40C5
:100A3000CAF80050FFF71AFD4D4B4E481D60224684
:100A400021461C76DC61FFF711FD4A4B4A481D60C8
:100A5000224621461C76DC61FFF708FD464B4748DD
:100A60001D60224621461C76DC61FFF7FFFC434BEC
:100A700043481D60224621461C76DC61FFF7F6FCE8
:100A80003F4B40481D60224621461C76DC61FFF743
:100A9000EDFC3C4B3C481D60224621461C76DC6147
:100AA000FFF7E4FC384BDFF800913848DFF8FC80B2
:100AB0001D601C76DC61FFF701FD3548354F364D72
:100AC000FFF7FCFC09F1180201214846FFF7CEFCB4
:100AD0004FF4004B47F6FF7308F11802012140461E
:100AE000C9F80050A9F81E302C4D0093A9F820B089
:100AF000FFF7BCFC284BC8F8003007F12802009B28
:100B0000A8F81E3004213846A8F820B0FFF7AEFC44
:100B10004FF48030224B134A3B6005F1180C4FF024
:100B2000020E234621462A602C72EC6085F809E00B
:100B3000C5F810C06246B861F861386278622C4628
:100B400000E0226942F823106A7A144801339A427D
:100B5000F7DC024B1A6862BBF6E000BF5465002068
:100B6000DC530020988300005885000080A8000016
:100B70005C5100208451002068520020AC510020BC
:100B8000D4510020FC510020245200209852002013
:100B9000185300205C54002030850000BC53002016
:100BA0006485000034510020F453002018540020C4
:100BB0001A465369002BFBD155614FF0000B634B74
:100BC0006348C5F814B0A5F804B0A5F806B02B60CA
:100BD00000F048FE5F4B604C83F808B0184683E88D
:100BE000400283F809B0C3F80CB003F071FF5B4B0F
:100BF000DFF8C0911E601846012683F809B0C3F8DB
:100C00000480C3F80CB01E7203F062FF544B4FF027
:100C10000508184683F808B0C3F800A0C3F80CB064
:100C20005C6083F8098003F053FF4E4B4E4A5C60D2
:100C30004FF0060A18461A6083F808B0C3F80CB0E3
:100C400083F809A003F044FF484A49495460072348
:100C50001046116082F808B0C2F80CB053720193CC
:100C600003F036FF4349444B4C60082208464A7261
:100C700000920B6081F808B0C1F80CB003F028FFB7
:100C80003E493F4B81F8098008460B6081F808B067
:100C9000C1F80CB0C1F8049003F01AFF39493A4B7F
:100CA00081F809A0084681E8080281F808B0C1F877
:100CB0000CB003F00DFF3549019B4B72344B81F8AA
:100CC00008B0084681E80802C1F80CB003F000FF44
:100CD000304B009A5A72304A83F808B0184683E8BD
:100CE0000402C3F80CB003F0F3FE2C4B184683E863
:100CF000900083F808B083F809B0C3F80CB003F093
:100D0000E7FE274B18465E72C3F800905F6083F8D9
:100D100008B0C3F80CB003F0DBFE224B184683F892
:100D200008B01F605D6083F809B0C3F80CB003F031
:100D3000CFFE1D4B1D4A1A600A221A7203B0BDE88D
:100D4000F08F1B4B1E605BE6186036E77085000075
:100D5000BC53002004510020985200201451002060
:100D6000245100204C5200205C510020F4500020FF
:100D70008451002094540020685200203C540020EC
:100D8000AC5100209C530020D4510020AC530020D3
:100D9000FC510020A454002024520020CC500020FC
:100DA000DC5000204C5400205C5200203C850000A8
:100DB00054650020185300202DE9F04F00F5807E87
:100DC000B1E8A00AB2E84015C5EA0643C6EA2544E0
:100DD000C7EA0845C8EA2746C9EA0A47CAEA2948CD
:100DE000CBEA0C49CCEA2B4AA0E8F8078645E7D1C4
:100DF000BDE8F04F70474FF000022DE9F00F00F50D
:100E0000807C00BFB1E8A00AC5EA0203C2EA25441B
:100E1000C7EA0205C2EA2746C9EA0207C2EA294828
:100E2000CBEA0209C2EA2B4AA0E8F8078445E9D1D7
:100E3000BDE8F00F70474FF000022DE9F00F00F50C
:100E4000807C00BFB1E8A00AC2EA0543C2EA0504FB
:100E5000C2EA0745C2EA0706C2EA0947C2EA090828
:100E6000C2EA0B49C2EA0B0AA0E8F8078445E9D1B7
:100E7000BDE8F00F70472DE9F00F089C00F5007BEE
:100E800051F8045B53F8046BC5EA0647C6EA2549E6
:100E900052F8045B54F8046BC5EA0648C6EA254AD2
:100EA000A0E880078345EBD1BDE8F00F704700BF95
:100EB00070B50021064603F0DDFDC0B1B6F91E4055
:100EC000B6F92010031D00F5827533F9022B944208
:100ED000A8BF14469142B8BF11469D42F5D80123E0
:100EE000F48331843377BDE8704003F085BD70BD75
:100EF0000020704700207047F8B51F4C027A0E465C
:100F00005200C1F3072101250746204684F83B2003
:100F100084F85E5084F85D5001F044FAF1B2204646
:100F200001F040FA2046002101F0DEFB08B100206C
:100F3000F8BD2B46397A0222204601F05FFC0128D9
:100F4000F5D994F8381094F83950A94210D26318A2
:100F50004A1CD2B2187E84F8382095424FEA00230A
:100F600006D922440231107E84F838101843F8BDA7
:100F70004FF0FF30F8BD00BFC4440020F8B5144C5A
:100F8000037A242908BFC2805B0001250E46204653
:100F9000C1F30721174684F83B3084F85E5084F88B
:100FA0005D5001F0FFF9F1B2204601F0FBF9C7F303
:100FB0000721204601F0F6F9F9B2204601F0F2F9D6
:100FC0002946204601F090FBB0FA80F04009F8BDB8
:100FD000C444002038B5012504460571334801F0AA
:100FE000F5F9052002F07EFB204644F26002302134
:100FF000FFF7C4FF20466C222621FFF7BFFF2046E3
:101000004FF4F9722821FFF7B9FF204640F622720B
:101010002C21FFF7B3FF204644F246423C21FFF764
:10102000ADFF204640F237122421FFF7A7FF2046EC
:1010300044F2FF023021FFF7A1FF73220221204674
:10104000FFF79CFF4FF4C87002F04CFB204641F6BE
:101050001D522E21FFF792FF042211462046FFF772
:101060008DFF20464FF498720621FFF787FF204638
:1010700010220A21FFF782FF204600220E21FFF7EF
:101080007DFF204643F63C421021FFF777FF2046C4
:1010900047F67F722221FFF771FF20463622242176
:1010A000FFF76CFF6572284638BD00BFC4440020BE
:1010B000F8B51C46154606460F46FFF71DFF20EA09
:1010C000040040EA0504394630462246FFF756FF41
:1010D000002814BF20460020F8BD00BF08B501223B
:1010E00003230E21FFF7E4FF80B208BD0F2928BFBC
:1010F0000F210F2A28BF0F2242EA01122021FFF7F9
:101100003DBF00BF10B5044619B1012911D0002020
:1011100010BD55222021FFF731FF0028F7D0E288CB
:1011200042F00402204692B22421BDE81040FFF7AD
:1011300025BF40F273122A21FFF720FF0028E6D0D6
:10114000882220212046FFF719FF0028DFD0E288FF
:10115000204622F004022421BDE81040FFF70EBF14
:1011600038B50546F1B1802903799ABFC1F18004F1
:1011700044EA0424002433B9224628462221BDE84B
:101180003840FFF7FBBEC288002322F01002037133
:101190002421FFF7F3FE224628462221BDE83840ED
:1011A000FFF7ECBE0123037147F67F722221FFF7A0
:1011B000E5FEEA8842F01002284692B22421BDE8FA
:1011C0003840FFF7DBBE00BF0B4610B507490446A9
:1011D000184606F0C7F9064906F0BCF806F0AEFB63
:1011E00001462046BDE81040FFF7BABF00000143AA
:1011F000EE7CFF3E10B5044603F040FD204610BDD6
:10120000024A0349034806F0B9BB00BF74440020FA
:10121000F5110000B454002038B5074D074C0848BC
:101220002A46214606F0AAFB2A4621460548BDE883
:10123000384006F0A3BB00BF74440020F511000045
:10124000BC540020C45400201B4A1C4B11681C488D
:10125000096970B499421279027009D2194A127858
:1012600032B3194A4FF08041116003F5807402E0F7
:101270001C46A3F58073154A154912680D68AAB17A
:10128000A5B1144E3088402810D841000A4440309F
:10129000294402320231308033F9040B22F8020F64
:1012A0009C4233F9020C21F8020FF5D870BC70474C
:1012B00003F58074DFE700BFD4540020BC34002065
:1012C0001F800040CE54002008E200E0DC540020E3
:1012D000D0540020CC540020F8B5064603F040FB63
:1012E0000446E8B103F03CFB054600283AD072B64C
:1012F0001F4B1A887F2A19D8002C31D01D490A6843
:1013000042B162B6204603F077FB2846BDE8F840BC
:1013100003F072BB18480C601A80056062B6F8BD15
:10132000054672B6124B1A887F2AE5D9114A12492E
:101330001768146000220C681A800D6062B6394686
:10134000304603F07DFB384603F056FB304621461D
:10135000012203F075FB2046BDE8F84003F04CBBCA
:1013600062B6F8BD204603F047FB2C46BFE700BF3E
:10137000CC540020DC540020D0540020F8B5284C78
:10138000284E2046012103F015FC00F0EFF9264B12
:10139000264A27484FF480611960236800211A60AB
:1013A00099802279186102F1804202F5043240F2FC
:1013B0000110D8809E614FF48075022006278E268A
:1013C000DD82D960DD8398609F83988211701670EA
:1013D00003F096FB1749184B2279184F08701A70C2
:1013E00039682279164C174D174E41F0124141F0E1
:1013F0000101531139609B00206803F1604302F141
:10140000100703F5614302F01F02012140F0104074
:1014100001FA02F2206045F827601A60F8BD00BFAB
:10142000D454002000FEFFFF14B00440A2F002409C
:10143000BC330020CE5400201B80004080F00240CE
:1014400000F002400038002049120000024A03491F
:10145000034806F093BA00BF74440020F511000061
:10146000D4540020024A0349034806F087BA00BF5B
:1014700074440020F5110000E0540020024A0349A2
:10148000034806F07BBA00BF74440020F511000049
:10149000E8540020024A0349034806F06FBA00BF2F
:1014A00074440020F5110000F05400202DE9F843A9
:1014B0004FF00008064600F1180547464146304601
:1014C000002F4FD003F0D6FAF0B12C68B4F5803F6E
:1014D00007F1040100F1040E07F5827C27D05EF8C5
:1014E000042B34FB02F334FB12F903F30F0209F36C
:1014F0000F03C2EA03430A6893FA12F341F8043B6C
:101500008C45ECD803F078FA08F10108B8F1040F23
:1015100005F10405D2D1002F40D0304639460022D3
:1015200003F08EFA3846BDE8F84303F065BA07F1D8
:101530000C0100F10C0451F8083C54F8082C93FA03
:1015400012F341F8083C54F8042C51F8043C93FA87
:1015500012F38C4541F8043C04F1080401F1080140
:10156000E9D8CFE703F092FA07460028CCD02868E4
:10157000B0F5803FC8D0391D07F582740B6830FB89
:1015800003F230FB13F302F30F0203F30F03C2EA7B
:10159000034341F8043B8C42F0D8B5E7BDE8F8833B
:1015A000024A0349034806F0E9B900BF7444002029
:1015B000F5110000F8540020024A0349034806F0E0
:1015C000DDB900BF74440020F51100000055002073
:1015D0002DE9F84F344B35481A68354912681B79A4
:1015E0000B70824229D2334B1B784BBBDFF8D4A05F
:1015F000DFF8D490DFF8D480DFF8D4B0DAF80060F8
:10160000D9F80070B8F80040BBF80050002E3CD06C
:10161000A7B33A1D311D02EB450201EB4401FFF770
:10162000CBFB403540347F2C1CD8A8F800407F2DE0
:101630000BD8ABF80050BDE8F88FA0F58070D5E767
:101640001D4B4FF080421A60D0E700243846ABF8BB
:10165000004003F0D1F9194B1A68C9F800201C604A
:10166000BDE8F88F00243046A8F8004003F0C4F924
:10167000134B1A68CAF800201C60D8E7311D01EB33
:101680004401FFF7B8FB4034CDE737B1391D01EB1A
:101690004501FFF7D0FB4035C5E739464FF480726E
:1016A000BDE8F84F06F064BC0C550020BC360020A5
:1016B0001F8000402455002008E200E02055002053
:1016C000285500201C5500201455002008550020E6
:1016D0001855002070B50021044603F0CBF980B105
:1016E00072B61C4A1368002B29D01B490D6805B33C
:1016F0001A4E156000220860328062B6184603F068
:101700007BF92046012103F0B5F988B172B6144A7D
:101710001368CBB113490C6874B1134D14600022E7
:1017200008602A8062B61846BDE8704003F064B9CC
:1017300070BD086062B6E4E7086062B670BD074934
:1017400010600B8062B6DCE7074910600B8062B660
:1017500070BD00BF1C5500202855002008550020F2
:10176000145500202055002018550020284B2949E9
:101770001A68294842F400421A600A6842F00202DC
:101780000A601A6842F002021A600368002B3EDB0E
:10179000224B1B68002B3ADB214A4FF08643136033
:1017A0001368002BFCDBF0B51E4C1F48DFF8A8E0E7
:1017B0001E491F4B1F4A204F204E214D47F2320C2D
:1017C000C4F800C0002404600120CEF80000DFF857
:1017D0008CE0C1F800E04FF480311960194B1360C0
:1017E000DFF87CE0184A3A603460286000F18E40EF
:1017F000CEF80000154CB9671548164946F8503C1C
:101800004FF4C0632A61236003600B60F0BD704732
:101810003C8004404080044000F0024080F00240E0
:1018200000F1024004F1024060F0024008F0024082
:101830000CF0024010F0024014F00240E0F00240D0
:1018400084F002401B1F0100001F1F1F08B004404E
:101850000CB0044018B0044004F00240010000073E
:1018600088F00240F8B5274C274E2046012103F0AE
:10187000A1F9264A264B002515601D60FFF776FF6B
:10188000244B254A25494FF4C06018602368022084
:101890001A6098802279196102F1804202F50432BF
:1018A00040F20117DF80DE604FF4807106278F263B
:1018B000D9829D82D9839D619F839860157016702F
:1018C00003F01EF92279164B1649187053119B002C
:1018D000174603F160430F70134D144E144C02F180
:1018E0001000012103F5614302F01F0201FA02F228
:1018F0004FF080770F492F602C6046F820101A6057
:10190000F8BD00BF0C55002000FEFFFF1C55002055
:101910001455002004B00440BC35002022F00240E1
:10192000245500201B80004000F0024000380020B9
:1019300001000090D1150000024A0349034806F057
:101940001DB800BF74440020F51100000C550020A4
:10195000024A0349034806F011B800BF744400204E
:10196000F51100002C550020024A0349034806F0F7
:1019700005B800BF74440020F51100003455002064
:10198000024A0349034805F0F9BF00BF7444002030
:10199000F51100003C550020024A0349034805F0B8
:1019A000EDBF00BF74440020F51100004455002035
:1019B000024A0349034805F0E1BF00BF7444002018
:1019C000F51100004C55002010B4047F4160022C3A
:1019D000C26002D010BC03F06BB9836810BC18471A
:1019E000F0B4464B464A186BDC6A017911704549E0
:1019F00022790A709A6A00790870002A46D05968DC
:101A0000C9688A423ED82168CC8B240402F1FF3099
:101A100065D4C0F30E00C883C88B80B2C882196B2E
:101A20000968C88B000452D4C2F30E00C883C88B67
:101A3000002480B212F1FF32C88218BF01229C62DA
:101A4000D96A2E4809680D6800F12404A54236D0F1
:101A50000068C46814F0804F0C680D6815BF2488B6
:101A600024780235013544F000440D604463196B5D
:101A7000254B09791970214912B1CA6A12791A7075
:101A8000F0BC7047521A9A620122D9E7586B196864
:101A900005681E4C0A63CC62CC682D681C4E24F08D
:101AA00080440327B542CC6083F825701FD1037FA3
:101AB0004260022BC2601ED0F0BC03F0F9B801688E
:101AC00090F82400CC6840F000404863CFE7CC8B0E
:101AD000C2F3080004F47E442043C883A7E7CC8BFC
:101AE000C0F3080004F47E442043C88394E72B46E7
:101AF0001146F0BC18478368F0BC18478C4400209E
:101B00001F8000401C8000401B80004000000FFF31
:101B1000C9190000DFF8F0C02DE9F041DCF8004001
:101B2000002C53D003686BB1D3F800428C4231D003
:101B300072B6046894F80832013B84F8083262B641
:101B40000023036072B6DCF80080002543462E4671
:101B50002F460BE093F808E2D3F80442BEF1000FE1
:101B600004BF3D461E461F46BCB12346D3F8004283
:101B7000A142EFD13FB1D3F80422C7F80422CCF838
:101B80000030C3F8048293F80822013283F8082257
:101B900062B603601846BDE8F08192B18EB13DB1E6
:101BA000D6F80432C5F80432CCF80060C6F80482D6
:101BB00001220023C6F8001286F8082286F80932AE
:101BC000066062B603681846BDE8F08172B60D4B38
:101BD0004FF0FF3703F6546EC3F8007283F80842E3
:101BE00083F8094203F5037373454FF0000643F889
:101BF000083C044DF0D1C5F84C6ECCF8005062B6EC
:101C000090E700BF5855002054550020F8B5314CDE
:101C1000E37A0E461746EBB172B6E37ADD071A4651
:101C200006D52D49E2680D682A40A2610A601A466D
:101C3000990706D5294923690D68E27A2B40E361AB
:101C40000B60520705D5264A636911680B40236271
:101C5000136062B62368DA68B2F1384F09D02149BF
:101C60001960214A4FF038454FF07841DD60196125
:101C70001A6001223146FFF74DFF48B390F8093250
:101C8000DB07054616D5E37A12491A4683B1D80711
:101C900003D5164A896911601A46990703D5144B72
:101CA000E169E27A1960530702D5124B226A1A6081
:101CB0002846F8BD3046294600F00AF940B11FB960
:101CC000012385F80932DEE7052385F80932DAE7D2
:101CD0000025D8E78C44002080E100E084E100E0AA
:101CE00088E100E001403F0000003F8000E100E0AB
:101CF00004E100E008E100E02DE9F041494CE37A1D
:101D0000054688461746EBB172B6E37ADE071A46F7
:101D100006D54549E26808680240A2610A601A4691
:101D2000980706D5414923690868E27A0340E361D0
:101D30000B60510705D53E4A636911680B40236269
:101D4000136062B62368DA68B2F1384F09D03949B6
:101D50001960394A4FF038404FF07841D860196126
:101D60001A60002241462846FFF7D4FE06460028A6
:101D70004BD090F80932DA0718D44046394600F0C3
:101D8000A7F8E37A5BBB96F8093213F001030FD191
:101D90002A68002A33D072B6296891F80822013ADD
:101DA00081F8082262B62B60BDE8F081E37AABB916
:101DB000314638464FF4007201F0D6F82B68002BFC
:101DC0002CD072B62A6892F80832013B82F80832A9
:101DD00062B600232B600120BDE8F0810120DB0703
:101DE00002D5164BA2691A60E37A0E4A990708D405
:101DF0005B0702D5124B226A1A60002EC3D1BDE8E0
:101E0000F0811049D2690A60F2E74046394600F095
:101E10005FF8E37A002BE2D1BDE8F0810120BDE854
:101E2000F08100BF8C44002080E100E084E100E00C
:101E300088E100E001403F0000003F8000E100E059
:101E400008E100E004E100E003684BB172B602680B
:101E500092F80832013B82F8083262B60023036030
:101E6000704700BF184A194B70B41B6815680126EB
:101E70004FF00044021285F80061DC625A63DA6AAE
:101E8000002AFCDA0A0C42F080524FF000449D6BAD
:101E9000DC625A63DA6A002AFCDA89B241F08051C6
:101EA0004FF000429C6BDA625963DA6A002AFCDA6E
:101EB000C0B24FF00042996BDA625863DA6A002AC6
:101EC000FCDA9B6B70BC7047AC6300208C44002034
:101ED000F8B5444B444D1B78012B98BF40020C468B
:101EE000014645F2FF10FFF7BDFF2B6809214FF0B7
:101EF0000047FF26DF625E63DA6A002AFCDA986B2D
:101F0000020603D54A1E12F0FF01F3D110F0FF0FB5
:101F10001DD14FF00040FF21D8625963DA6A002AD0
:101F2000FCDA9A6BD2B2FE2A21D0FF2AF4D02F4AD3
:101F3000106801244FF00041FF2280F88040D962F0
:101F40005A63DA6A002AFCDA9B6B0020F8BD274A44
:101F5000106801244FF00041FF2280F88040D962D0
:101F60005A63DA6A002AFCDA9B6B0020F8BD204B2A
:101F7000204E5E631A4618465E63A11C04F5007786
:101F8000D36A13F0F00FFBD04663836B01F8013C7A
:101F90001B0A01F8023C0231B942F1D11449CA6A64
:101FA000134B12F0F00FFAD09A6B84F8FF21120A4B
:101FB00084F8FE21DA6A0E4912F0F00FFAD00B4BCA
:101FC0002A6818688B6B01244FF00041FF2380F8CA
:101FD0008040D1625363D36A002BFCDA936B0120FB
:101FE000F8BD00BFB06300208C440020AC6300202B
:101FF00000C00240FFFF00100020704770B51B4B6F
:102000001B4A1B781168C46982B00022102B064657
:10201000019201AD17D001EBD41128460122FFF740
:10202000F5FDD8B104F07F0450F82430114AF36173
:1020300014682846A3428CBF00240124FFF704FF44
:10204000204602B070BD01EB142128460122FFF7A3
:10205000DDFD18B1E4B230F81430E7E72846FFF7A9
:10206000F3FE0024204602B070BD00BFF4630020E0
:10207000F0630020F863002090F82530012B1CBF8E
:102080000123037100207047704700BF2DE9F04F16
:1020900003694669C3EB0609914528BF914685B09F
:1020A000B9F1000F4DD0DFF858B1544C80460D46C1
:1020B000C1699BF80000246800F10902012707FAB2
:1020C00002F20239013A1A4081402144C2F3080366
:1020D00001EB5224002B39D11E460DF10C0AC6EB40
:1020E000090703E04E45A7F5007726D20023B7F590
:1020F000007F2A462146504603934BD3FFF7FCFD51
:10210000013405F5007500283DD0D8F8103003F5EE
:102110000073C8F810305046FFF796FE9BF8003069
:10212000012202FA03F3013B234206F50076D9D1DE
:102130004046FFF763FF0028D4D1304605B0BDE824
:10214000F08F4E46304605B0BDE8F08F0DF1100A15
:1021500000224AF8042D214650460193FFF756FD10
:10216000002849D0019BC3F500764E4500EB0301E2
:1021700024D928464A4600F0F7FED8F810304B44E0
:10218000C8F810304E465046FFF75EFE304605B0A8
:10219000BDE8F08F1A46FFF739FD0028F3D001465D
:1021A0003A46284600F0E0FED8F810301F44C8F840
:1021B000107050464E46FFF747FEE7E73246284686
:1021C00000F0D2FED8F810303344C8F81030504632
:1021D000FFF73AFE9BF8003007FA03F30134013BA6
:1021E000234203D04E45A8D2354478E74046FFF756
:1021F00005FF0028F6D1A0E70646C4E7B463002037
:10220000B863002090F82530012B02D94FF0FF3041
:10221000704770B582B001220DF1070104460669CE
:10222000C569FFF733FF012805D19DF80700266136
:10223000E56102B070BD4FF0FF30FAE790F825304D
:10224000012B02D94FF0FF30704700B583B0012257
:102250000DF10701FFF71AFF012804D19DF80700CF
:1022600003B05DF804FB4FF0FF30F9E790F825303C
:10227000012B01D90020704743690069181A48BF33
:102280006FF00040704700BF10B504680C4A6468E6
:1022900082B094428DF8071008D190F82520012AC9
:1022A0000AD001220271002002B010BD01220DF1FE
:1022B0000701A04702B010BD002002B010BD00BF52
:1022C000792000004FF47A7210B4064C8260042129
:1022D0000022046080F825100271027380F8262025
:1022E00010BC7047F4850000704700BF10B5054C66
:1022F0002046FFF7E7FF2046034A0449BDE81040A7
:1023000005F03CBBBC63002074440020E9220000BF
:10231000014B024A1A607047FC630020000002383B
:1023200090F8392090F83800101A704790F838303B
:1023300090F839209A4205D95A1C034480F8382075
:10234000187E70474FF0FF30704700BF90F838306C
:1023500090F839209A4286BF1B18187E4FF0FF3044
:10236000704700BF704700BF38B50546B0F85E0043
:1023700090B195F85D301446C3F1210294420CD817
:1023800005F13B001844224600F0EEFD95F85D3063
:10239000234485F85D30204638BD0120144628715D
:1023A000EEE700BFB0F85E306BB190F85D30202BE7
:1023B00007D8C218013380F85D30012082F83B1045
:1023C0007047012303710020704700BF002342695A
:1023D00080F8383080F8393080F85C3080F85D3033
:1023E00080F85E3080F85F3006CA30B40D6804694A
:1023F00043662A4383660A60A370426990F861309D
:102400001649146813441D7A5B7B01EBC5051B025A
:102410006D6803F4E06343F064032B6090F862306E
:1024200013449D7CDB7D01EBC5011B02496803F46D
:10243000E06343F064030B6021685368194205D0E0
:10244000036928225A70036903229A7103692022C2
:102450005A71036980229A7030BC704728A9000025
:1024600010B50269D378DBB2D90604463DD51021F8
:102470005806D17038D503F0040303F0FF02002B97
:1024800051D03D49626E00230B7084F85D30002A04
:102490005BD0904794F85D30002B56D02369D02252
:1024A0009A70236994F83B201A712369012284F8F9
:1024B0005C200222DA7010BD304B84F860009C4230
:1024C0004AD02F4B9C4252D094F8391013791F29CF
:1024D000DBB207D82848007820B16018013184F8B1
:1024E000391003760223D37010BD5906C3D49178F6
:1024F00001F0100101F0FF000029DDD013F001030D
:102500001ED194F85C1094F85D00884281BF4B1C8A
:10251000091984F85C3091F83B3013712369D0229B
:102520009A702269DEE7236984F83920C0229A7004
:102530002369114A1979012111700222DA7010BD44
:10254000C023937022691379CCE70122002384F819
:102550005D2084F83B30A1E7626994F86130094955
:1025600013440322187A00F0D1FF2269ACE76269B4
:1025700094F861300449F3E700640020C44400206B
:1025800030450020E9250000F52500000369DB78CF
:1025900003F0200373B190F860300133DBB2012BFC
:1025A00080F860301AD9426990F861301344187A83
:1025B00001F028B870B5426903F0FF0590F861306A
:1025C00013440446187A01F01DF8A36E5BB184F839
:1025D000385094F83900BDE87040184790F85F30E3
:1025E000002BE0D0704770BD0148FFF7CFBF00BFA0
:1025F000C44400200148FFF7C9BF00BF3045002098
:102600002DE9F047364FDFF8DC903B68026982B075
:1026100006460093DDF8008000217825D3789B06DC
:102620005AD53B680193019BC8EB03030F2BF5D9E7
:1026300049B1102BF2D000209070336980229A703B
:1026400002B0BDE8F087726996F861301344052145
:10265000187A01F041F8726996F86130134401214B
:1026600093F812A0504601F037F809240021504693
:1026700001F01EF82B46013BFDD10121504601F02F
:1026800017F82B46013BFDD1013CEFD1706996F85C
:1026900061100144F0220C7A4B7B09EBC4011B0250
:1026A000496803F4E06343F064030B6096F862301A
:1026B0000344997CDB7D09EBC1011B02496803F4EB
:1026C000E06343F064030B60013AFDD13269D378D3
:1026D0009B064FF00101A4D4012002B0BDE8F087B1
:1026E0000864002028A90000F0B503691222DA70FE
:1026F0000269937803F0200385B004460D46002B51
:102700005ED0B42393703C4922690B680093009E0D
:1027100005E00B680193019B9B1B042B42D8D378E7
:1027200003F0200303F0FF00002BF2D094F85D309B
:10273000002B31D04FF0000E4FF0020C04EB0E03D3
:1027400093F83B3013710B680393039F206907E0F4
:102750009B060DD50B680293029BDB1B052B28D82B
:10276000C378DBB203F0020202F0FF06002AEFD0CA
:1027700080F803C02669F378DBB2DF0632462DD439
:102780009F062BD5DB0731D40EF1010E94F85D3096
:102790005FFA8EFE7345D1D800201DBB002384F85C
:1027A0005E3004E09070236980229A70042005B0A6
:1027B000F0BD86702369802204209A7005B0F0BDB8
:1027C00003F0FF06FFF71CFF10B9042005B0F0BDB1
:1027D000236984F85F60B0229A7094E78023B37015
:1027E0000420DAE726698023B370D7E7BEF1000F33
:1027F0000CBF02200320F6E7086400202DE9F04119
:1028000006690025122780F8385080F83950F77093
:10281000D0F810C09CF802E00EF0200E88B00446FC
:10282000884615461E46BEF1000F49D0B4238CF8E9
:102830000230784B21691A680092DDF800E006E06A
:102840001A6801920198CEEB0000042830D8C878AD
:1028500000F0200000F0FF070028F1D04FEA480206
:1028600042F00102D2B20A711A680292DDF808E061
:10287000206906E01A6803920399CEEB010105294D
:102880002AD8C17801F0020101F0FF070029F1D038
:102890004FF0020C80F803C02269D17811F01107C3
:1028A00022D12DBB002E0CBFA0238023937003E008
:1028B0008F70236980229A70384608B0BDE8F08195
:1028C0000EF0FF07FFF79CFE0028F5D0236984F87F
:1028D0005F70B0229A70ACE7877023698022384617
:1028E0009A7008B0BDE8F081802393700027E3E779
:1028F000012D75D0A021917021690A79BE466746E5
:102900004FF0A80C1A680492049805E01A68059222
:10291000059A121A052A4AD8CA7802F0020202F071
:10292000FF08002AF2D0CF702169CA78D2B212F023
:10293000100F08465AD1920658D5013DEDB2012D2F
:1029400049D0BEF11F0F3BD90A79012DDAD11A689F
:102950000692069D05E01A680792079A521B052AFF
:1029600046D8C27802F0020202F0FF01002AF2D03B
:102970000223C3702269D378DBB2D9063AD49B060E
:1029800034D5B023BEF11F0F93703FD8226904EBFA
:102990000E0312791A760EF1010E5FFA8EFE16B151
:1029A000236980229A7084F839E0774684E781F8B9
:1029B0000280236980229A70774684F839E07BE7A9
:1029C00004EB0E0291F8048082F818800EF1010EDB
:1029D0005FFA8EFEB9E781F802C021690846B0E7C8
:1029E000A82191702069BE460279B0E7774663E777
:1029F0008170DEE710217823D170013BFDD122697F
:102A0000937803F0F7037746937055E723691B79B2
:102A1000C5E700BF086400200148FFF721BD00BFE3
:102A2000C44400200148FFF71BBD00BF3045002013
:102A300038B5054601F094FFE0B10446031D00F5EA
:102A40008271EA69C2EA02421A605A609A60DA60E8
:102A50001A615A619A612033994243F8042CF3D8E1
:102A600028462146002201F0EBFF2046BDE8384011
:102A700001F0C2BF38BD00BF002970B5064620DB9B
:102A80007F29A8BF7F2172B60F4B53F821502846EB
:102A900004F054FF84B2204604F010FD014628469D
:102AA00004F056FC4FF08B4104F05CFD04F046FF4F
:102AB0000F2C28BF0F2440EA043084B2F46162B6C0
:102AC00070BD0021DFE700BF748600002DE9F04FE4
:102AD0009DB090F870400590002C43D090F858308D
:102AE000002780F87070002B45D0394601F0C2FFF6
:102AF0000A90002800F04E8101230293DDF8149023
:102B0000002510AC05F101084146484601F0B2FF2E
:102B10000CABAE1C43F8150000283DD031464846AA
:102B200001F0A8FF44F8150078B3082E3546E9D126
:102B3000002F38D00A9B13B1184601F05DFF0CAD91
:102B4000264655F8043B18460BB101F055FF56F8E0
:102B5000043B18460BB101F04FFFA542F1D11DB067
:102B6000BDE8F08F059B93F85830002B40F01D8195
:102B70001DB0BDE8F08F0521904801F0C1FD9048DF
:102B80001DB0BDE8F04F02F07FB9029B002B40F072
:102B9000D08001377FB2C8E7029B002B40F0D8807D
:102BA00001377FB2BAE701F0DBFE0B900028DFD0DF
:102BB000059EDFF82482736CB26C149315920B9B04
:102BC0000A9AF16C306DF56B04970232023307926A
:102BD000069306F1580206F16B03039516911790C0
:102BE000099208930DF15009079ADDF824C032F9D3
:102BF000023FDDF820E007929B100193049B002226
:102C00005D0059F82230039E5CF8047F0CA9180E71
:102C100051F82210009106EB400136F91000B1F98D
:102C20000260C3F3074A311A0AFB01F600EB1620D3
:102C300054F8221007FB00F70098294400EB050B1D
:102C40003F0AB1F90460BBF904B001994FEA074AA1
:102C50005AFB01FA36B2A6FB0801F71708FB071169
:102C6000060E18A846EA01261EF9011F40F822A008
:102C7000CBF303300144534800FA01F1029806EB0C
:102C80001126CBF30B0B20B1059F3846B9670027FF
:102C9000C7674D4830F81B00A0FB0101000E40EA59
:102CA0000120064403EB062349F822300132042AAE
:102CB000A7D1189A199B1A981B9913441844069A7D
:102CC000049B0144013322F8021F802B04930692D7
:102CD0008AD1029B002B4AD10C9E059D149B15990D
:102CE000169A6B64179B2B652846A964EA640B9DB2
:102CF0000022294601F0A4FE284601F07DFE0A9834
:102D000001F07AFE304601F077FE0CAD0FAF54F8BB
:102D1000040B01F071FEBD423FF42AAF55F8040FD9
:102D200001F06AFE54F8040B01F066FEBD42F5D1D5
:102D30001EE73146224802F0F7F8214802F0A4F8D5
:102D40000A21224801F0DCFC1D4802F09DF820E732
:102D500041461B4802F0E8F8194802F095F80A21AC
:102D60001A4801F0CDFC164802F08EF818E716213B
:102D7000174801F0C5FC124802F086F80C9E104876
:102D8000B6F918100023102202F08EF80C4802F059
:102D90007BF8A2E70B210F4801F0B2FC084802F0D3
:102DA00073F8012302931F46A8E6214601F062FE54
:102DB000B0FA80F70A9002947F099FE690A800007D
:102DC000984600206A6D070078880000A4A80000DB
:102DD000B0A8000098A8000040ADED0030B585B067
:102DE000044602A800F044F802A800F0AFF8E0633F
:102DF00002A800F0ABF81A4D20641821194801F020
:102E00007FFC284602F040F80921174801F078FCC1
:102E1000E16B00231022284602F046F8284602F013
:102E200033F80921114801F06BFC216C00231022BA
:102E3000284602F039F8284602F026F80023FF223F
:102E40002D21009302A80191114600F05FF802A81D
:102E5000E16B00F067F8012384F8583005B030BD0D
:102E600098460020C8A80000E4A80000F0A80000D0
:102E70000022027042708270C2700271427170470B
:102E80002DE9F84346784579044626B1A5F180033B
:102E900013FB06F636B2A7788FB3284604F00AFB78
:102EA000184904F05FFB4FF0705104F05BFB03F036
:102EB00035FF02F07FFC80468946F80103F01CFFD5
:102EC00042464B4603F07EFF04F016FA00B2E37868
:102ED0002BB12279DB01AA429CBF5B421BB20644A4
:102EE00022780948334402FB03F380FB03200135B9
:102EF000DB17C3EB2020657100B2BDE8F8833846CC
:102F0000E5E700BFD80F4940353AFC4430B49DF89E
:102F100008509DF80C40C5700471017042708370B8
:102F200030BC7047F8B5002305460F4643718C1E30
:102F300001F5FF762846FFF7A3FF24F8020FB442FD
:102F4000F8D13B88A7F80032F8BD00BF08B540F2C1
:102F5000022001F0F9FF0022831E00F5007123F822
:102F6000022F8B42FBD108BD844641EA000313F0D7
:102F700003036DD1403A41D351F8043B40F8043B80
:102F800051F8043B40F8043B51F8043B40F8043B43
:102F900051F8043B40F8043B51F8043B40F8043B33
:102FA00051F8043B40F8043B51F8043B40F8043B23
:102FB00051F8043B40F8043B51F8043B40F8043B13
:102FC00051F8043B40F8043B51F8043B40F8043B03
:102FD00051F8043B40F8043B51F8043B40F8043BF3
:102FE00051F8043B40F8043B51F8043B40F8043BE3
:102FF00051F8043B40F8043B403ABDD2303211D383
:1030000051F8043B40F8043B51F8043B40F8043BC2
:1030100051F8043B40F8043B51F8043B40F8043BB2
:10302000103AEDD20C3205D351F8043B40F8043B82
:10303000043AF9D2043208D0D2071CBF11F8013B80
:1030400000F8013B01D30B8803806046704700BF46
:10305000082A13D38B078DD010F003038AD0C3F155
:103060000403D21ADB071CBF11F8013B00F8013B37
:1030700080D331F8023B20F8023B7BE7043AD9D3F6
:10308000013A11F8013B00F8013BF9D20B780370CB
:103090004B7843708B78837060467047374A384965
:1030A00013681B06FCD40B6813F08003F8D172B6CA
:1030B00034490A78002A5FD0334A3448F0B4344C9B
:1030C000176806682568D4680C303E4414320068DE
:1030D0001268304F35442C4420440244C2F34E025F
:1030E0002D4E2E482E4D2F4C42F400423A60376848
:1030F00006682D682C4A24680C303E44006812682B
:103100002A4F35442C4420440244C2F34E02284E38
:103110002848294D294C42F400423A603768066835
:103120002D68274A24680C303E4400681268254FF9
:1031300035442C4420440244C2F34E02224E23481C
:10314000234D244C42F400423A60376806682D68EB
:10315000214A24680C303E440068126835442C44EF
:1031600020440244C2F34E021C4842F40042026072
:103170000B7062B6F0BC704762B6704724B0034073
:1031800024B00B400264002038B003403CB0034040
:1031900040B003402CB0034058B003405CB0034043
:1031A00060B0034064B003406CB0034030B00340F3
:1031B00038B00B403CB00B4040B00B4044B00B402B
:1031C0004CB00B402CB00B4058B00B405CB00B40E7
:1031D00060B00B4064B00B406CB00B4030B00B40A3
:1031E00030B42948294A2A4B2A4D6024E121047031
:1031F00011701B78284C082B30D00A2B27482849FF
:1032000037D00C2B0CBF15223D2212232A602360DD
:1032100002600B60234B24491B78244ABBB1012375
:103220000B601360224B23491B78234A012B26D9BC
:10323000042B0FD9082B1ED9102B94BF862387236C
:103240000B6013601D4B01221A7030BC70470B607D
:103250001360E7E784230B601360F3E700F58E202B
:103260000F490830012213232A60236002600B609B
:10327000D0E71922F7E785230B601360E2E780238C
:103280000B601360DEE700BF0040074001400740CD
:103290009C45002008B003400CB0034008B00B4030
:1032A0000CB00B400564002020B0034020B00B4060
:1032B0009D45002024B0034024B00B400264002050
:1032C00028282FD8334B2DE9F0411E5CFF2E2BD040
:1032D000314B1B78002B2AD132062CD472B62F4DDD
:1032E0002F4C2F46012326602B7062B672B62368DE
:1032F0001B060CD43B781BB9F4E72B78002BF1D0DC
:1033000062B601F0F3FF72B623681806F5D5254BB7
:103310001B6800222A7062B6234A107843FA00F034
:10332000BDE8F081002070470020BDE8F081FFF784
:10333000B5FE3206D2D572B61C4DDFF87C801C4C2F
:1033400006F04007FFB206F03F06D8F80030DFB1C4
:1033500023F01003C8F8003001232660134A2B70B5
:1033600062B672B6236819060CD413781BB9ECE761
:103370002B78002BE9D062B601F0B8FF72B6236853
:103380001B06F5D50B4BC3E743F01003C8F800301C
:10339000E2E700BFFCA800000264002004640020F3
:1033A00000B0034010B0034001640020036400201B
:1033B00000B00B4010B00B400CB00B4008B5104CE7
:1033C00008E0236859050DD423681A050FD4236833
:1033D000DB0411D423685803F3D500F001FB236804
:1033E0005905F1D502F006F823681A05EFD502F069
:1033F00097F82368DB04EDD502F028F9EAE700BF6F
:103400003480044008B5FFF7D9FF00BF014B1022FC
:103410001A80704700200540704700BF094908B571
:103420000B6830B16A461844A2F58052904202D22D
:103430000860184608BD04F0ADFA0C2303604FF095
:10344000FF3008BDA0450020FEE700BF704700BF69
:1034500010B40F4B53F8302092F880422CB1012366
:1034600069B182F8803010BC704703EBC0035B6821
:103470001A6841B922F002021A6010BC704782F843
:10348000003110BC704742F003021A6010BC704754
:1034900028A900001C4A02EBC00301295B6811D077
:1034A00004291BD052F83000002280F8802229B174
:1034B000022920D0032922D01A6070474FF480726D
:1034C0001A60704752F830004FF4A27280F88012F0
:1034D0001A601A6822F020021A60704752F8301001
:1034E0004FF4A272012081F880021A601A6842F03B
:1034F00020021A60704740F203121A6070474FF4BE
:1035000081721A60704700BF28A90000212817D8CF
:10351000F8B5042A13D8DFE802F0494C4F144600EE
:103520002C4872B6236823F4702343F08072C4F3EE
:1035300084011643236040F82150266062B6F8BD2E
:1035400070474FF41026244B03EBC0030D465C6814
:10355000216811F4E06134D0204B214A2149C3F89D
:103560009C2104F140422048C3F8A411A2F5922105
:103570001E4FC3F8A0017C291D48C3F8A871C3F8E9
:10358000AC01CDD9A2F594237C2B18D9A2F59623B2
:103590007C2B19D9A2F598237C2B17D9A2F59A2256
:1035A0007C2A15D9F8BD4FF43026CCE74FF400261D
:1035B000C9E74FF44026C6E74FF42026C3E70D487D
:1035C000AFE7FFF767FFC7E70B48AAE70B48A8E795
:1035D0000B48A6E7A445002028A9000000380020D9
:1035E00049440020F14300201D440020C543002031
:1035F00099430020DC4500202C4600205C4600203A
:103600007C4600201A4B03EBC00010B4426802F164
:103610004043A3F592217C2905D9A3F594217C2967
:1036200013D8144900E0144972B61368134C23F000
:103630008773C2F3840023F4803343F080731360F4
:1036400041F8204062B610BC7047A3F596217C2952
:1036500009D9A3F598217C2907D9A3F59A237C2BB6
:10366000F1D80749E0E70749DEE70749DCE700BF93
:1036700028A90000DC450020A44500204D340000AE
:103680007C4600202C4600205C46002030B4054BD0
:10369000054D064C002210211A602A602060196036
:1036A00030BC704714D0034004D0034000D0034026
:1036B000212801D8FFF7CCBE704700BF212806D8CB
:1036C000044B53F8303093F80002C0B2704700202A
:1036D000704700BF28A90000212801D8FFF7DABEF3
:1036E000704700BF2DE9F843054672B6214F224BC3
:1036F000224A1B683C68126862B6520102D5322B1E
:1037000088BF0134A5B3C3F58C331D4EDFF8689034
:10371000DFF8688003F23F134FF47A72A6FB0313BD
:1037200002FB04F404EB131472B6D9F800103A68E3
:10373000D8F800E062B6C1F58C3303F23F13A6FB64
:1037400003031EF0806FC4EB13134FF47A7002D0A2
:10375000322988BF013200FB0233B3F57A7F04D3EC
:10376000013D05D004F57A74DEE701F0BFFDDBE72B
:10377000BDE8F8830864002018E000E004ED00E0F4
:10378000398EE338F8B52D4B2D49DFF8D0E0DFF85E
:10379000D0C02C4E2C4D2D4C2D4A2E4F4FF40000F6
:1037A00018604FF0807018604FF0007018604FF094
:1037B000806018604FF000601860002008602823C7
:1037C00048F6FF71CCF80010CEF80030336013607B
:1037D0002B6023603B60B3629362092245F8242C7E
:1037E000C4F8D80F05F57F65C7F8D41F07F5FF2784
:1037F00007F5FA67C6F8F83F2B6006F5FF26C4F810
:10380000D42F05F5FD2504F5FF24386006F2F47683
:103810001148316005F5FF6504F5FD642B602360F8
:103820000260FFF7DDFC1920FFF75CFF00F048FEA7
:1038300040F21310BDE8F840FFF754BF08E100E084
:103840000480034014800340248003402C80034004
:103850001C8003403480034000800B400C800340F8
:1038600008800340431E072B14D872B60A4951F84A
:10387000230068B170B4094C058834F813204668F9
:1038800041F82360521B24F8132062B670BC7047C5
:1038900062B670470020704774640020886700207B
:1038A000013807280BD872B6074B53F8203043B1C4
:1038B00000205B680130002BFBD162B6704700200E
:1038C00070471846F9E700BFD8640020F0B5864677
:1038D00072B6022201231C491C4F02E02946013323
:1038E0000132072B01F10105F9D0097817489C0036
:1038F000090744F0010605D557F8341069B157F8A7
:103900003610C1B1092AE9D162B6114B00221A70F2
:103910007046BDE8F04000F04FBE0D490D4D0A78ED
:1039200040F8345000EB43130EF10800013A5860A0
:103930000A7062B6F0BD0649074B40F836300A7887
:1039400000EBC603F0E700BF64AA00000080FF1F81
:103950002165002088004000C8004000431E072B5E
:103960001DD81B4A400140F0100030B4104472B61C
:10397000184CE25C032A1BD8DFE802F0021215178C
:1039800003220D88E25410F0080F14BFC8238823C7
:1039900043EA054308310360416062B630BC7047BA
:1039A00008300222EDE70522EBE708300422E8E7C1
:1039B000094A52F8230038B1084A52F823004160FE
:1039C00042F8231062B6E9E742F82310034AF7E70A
:1039D0000080FF1F30650020D8640020F8640020BC
:1039E0002DE9F04FDFF844A3DFF844B389B049E094
:1039F000DFF840834FEA930908EBC907013C7A6876
:103A0000E4B2052CA2F1080000F02081062C00F0A1
:103A10003C81072C00F051811E0700F1388158F8D5
:103A200039301B0C99B222F8081C002B00F02481BD
:103A3000A94D55F82460002322F8063C42F8043CC6
:103A4000002E00F01B82A54E56F824305860A44D7D
:103A500046F8240035F81430194425F8141000F005
:103A60008BFD002800F003829E4A9F4B17F0080F41
:103A700000F1080018BF1346786048F83930082371
:103A80008AF800309AF80040E4B263071CD5974BDF
:103A90001B78B3B196490A7802F0FF0322B1013BCB
:103AA000DBB20B7003B900BE92490A7802F0FF0343
:103AB0002AB1013BDBB20B70002B00F0AE8100F0AD
:103AC000A1FD04238AF8003004F0080303F0FF028C
:103AD000002B00F03E819BF80030DBB21C0987D13F
:103AE0009D08DFF8509259F8352009EBC501C2F363
:103AF0008302013A49680C2A7CD8DFE802F07F7F14
:103B00007B7B7B7B7B7B4A7B7B7B07000A687A4ED7
:103B100049687A4B73487A4C716091B249F8350024
:103B2000326001200022B1F5086F01931A60C9F8D4
:103B30001020C9F818200792207000F0528340F23C
:103B4000298142F22135A94200F0FE8200F218825A
:103B500040F60132914200F0CE8200F2A382B1F52C
:103B6000106F00F0618340F68122914240F0FE81A7
:103B7000614B07909A88042A00F04284052A40F09D
:103B8000F581604A60495C4B1278DF880A70012039
:103B900012E25A4B0193196831B35C4B584C5C4AA2
:103BA0001888257816784028074646F0020C28BF6A
:103BB0004027002D85F001052570A0EB07000CBF04
:103BC0008824C82409EBCC0580B286F0010644EABB
:103BD00007446960188049F83C4039441670002851
:103BE00000F00E81019B1960434B1A88B2F5A06F5B
:103BF00000F00A81474A0123137040E73E4A1088CB
:103C000042F22102904200F04D813B4801F038FB26
:103C1000A8B13F4A3A4C1178207881F0010600287B
:103C200041F0020116700CBF8822C82249F83120E9
:103C300009EBC10180F00100002220704A60294A8E
:103C400049F83520334A0123137018E719077FF527
:103C5000E6AE01F067FA00283FF411AF87F00807DD
:103C600000042D4B2D4A7B6040F080003860537972
:103C700083F00103537102E71A4A1B4B17F0080F38
:103C800018BF134648F83930F9E61B0777D500F01E
:103C900093FC234A214D52F82430002B00F0F2808F
:103CA0005968285D42F8241003F108027A6003285D
:103CB00044D8DFE800F0A2419F9C1D077FF5AFAE1E
:103CC00087F00807174A7A60174B144A3B60D3798C
:103CD00083F00103D371D2E67464002010640020E5
:103CE00088670020C8004000880040002C65002044
:103CF0009564002040650020186500200C640020B9
:103D000094640020A3650020246500203064002016
:103D10002065002094200740743A00203065002080
:103D2000D8640020BC3900208000030080200740B8
:103D3000902007400080FF1F02222A551A8817F0A2
:103D4000080F0CBF8823C82343EA024348F83930E0
:103D500095E6E00764D4210600F1C980A20706D5E4
:103D6000B84AB94913780220DBB213700870E30631
:103D700002D5B54B10221A7009B0BDE8F08F58F883
:103D80003900000C01F01CF9B04AB14B7A6048F8D8
:103D9000393074E640F20230814200F02A8200F2AB
:103DA000B080B1F5817F00F0098200F2D7808029D0
:103DB00000F03282822940F0D980A64B998801F028
:103DC0007F01082900F2D280A348A44DA14B2A709C
:103DD000890008446A700278DF88A049900748BFCC
:103DE00001224FF0020048BF2A700790E4E004224D
:103DF0002A55A3E705222A55A0E703222A559DE765
:103E0000402F18BF0021EDE600219A785970944B9D
:103E10001A70944A0123137031E600F051FD4EE60A
:103E2000914B904891491A614FF0020E80F800E0E2
:103E3000894F0A708E4919609960824E824D884C74
:103E40009A610D213970FF213170DFF854E2297039
:103E50002270884D884A8EF800109F27012406F8AA
:103E6000047C5D600470DA6009B0BDE8F08F834ABD
:103E700048F8390013780133137000E645F8240040
:103E80007F4EE4E52B5D032B00F22E8101A252F858
:103E900023F000BF7F3A00007F3A00004F3F000050
:103EA000493F0000774ACE1D11F8013B02F8013F5F
:103EB000B142F9D1744A1268862A4BD06B4A734CCE
:103EC0001078217880F0010E002940F0020082F87D
:103ED00000E00CBF8822C82249F8302009EBC0005E
:103EE00081F0010700223146277042608DE65A4971
:103EF000554B80220D2008701A70A2077FF537AF4E
:103F00002EE7B1F5A06F00F01F8140F25D82A1F5B0
:103F1000D06101292AD85E4A516839B34D4B5D887A
:103F20009E8802E00C32516801B31388AB42F9D18C
:103F30005388B342F6D12D0A032D00F08882454BF9
:103F400010890790DF8837E001232B5597E5002380
:103F50002B5594E54F4A0F211170AFE740F2211322
:103F6000994206D040F22123994202D03A4A0F23C7
:103F700013703C4A012313703A4A012313707EE503
:103F800048F2A120814200F00C8100F2018148F248
:103F9000A110814200F0058148F2A2108142E5D1D2
:103FA0002C4BDF88022FE1D92C4944208A700870FD
:103FB000AC2203204A700790874280F0C780402FD0
:103FC0003E4694F800E0079728BF40268A198EF0F5
:103FD0000108B81B33040292244A84F80080157843
:103FE000BEF1000F45F0020C0CBF8827C8271F4305
:103FF00009EBCC0349F83C7085F001075960177054
:104000002249002800F08480402840F28480164B2A
:10401000029C47F0020703EBC7035C60B8F1000F96
:1040200000F0A18081F800E00F491B4B157041F8AA
:104030003730224640384032184B019918800A60C8
:1040400097E700BF8820074080200740C039002044
:104050008000B40018650020C020074024650020BF
:1040600098200740942007400080FF1F2065002013
:1040700088004000346400209864002021650020FE
:104080001064002097670020986700209464002047
:104090006CAA000095640020C80040003064002035
:1040A0008C20074042F2210291423FF462AF42F27B
:1040B000212291427FF45AAFAE4DAF4BAF48B04A88
:1040C0002D68997805601170AE4A157845F00201A7
:1040D00085F0010709EBC1001770C825002249F8D7
:1040E00031504260227044E717F0080F0CBF0223E2
:1040F00003232B55C3E4A04B9A88042A00F0868141
:10410000052A7FF433AF9C4B9F4A59881170DBE737
:10411000402E7FF42EAF47F0020709EBC703029E43
:104120005E609A490304B8F1000F27D143F0880379
:10413000064441F83730157084F800E032464028D4
:104140007FF417AF002077E700200146402806469D
:1041500094F800E028BF40268A198EF00108801BE1
:104160003304029238E781F800E015708749029A1B
:10417000874B41F83730403840325DE71570029A7E
:1041800084F800E043F0C803024441F83730D6E732
:1041900048F2A132914204D048F2A14291427FF408
:1041A000E5AE754D7B49284607AA01F035F8002891
:1041B0003FF4DCAEEF8807987649FDE66E4B9A88AF
:1041C00002F07F02082A3FF6D1AE598800297FF419
:1041D000CDAE7149920011440A7822F002020A70B1
:1041E00072E76E4B6B491A78634B0790DF880A7051
:1041F000E2E6614B9A8802F07F02082A3FF6B6AEEB
:10420000598800297FF4B2AE6349920011440A78BC
:1042100042F002020A7057E75E49574B0A700220CB
:10422000DF884A700790C7E6534B584D9A785B4B2E
:1042300005F580761A7002E00835AE4207D02B6A89
:104240001F06F9D5686A083800F0B6F9F4E7544952
:10425000544B554A02915549554E564D0395059478
:1042600004964FF000081D4614460E46286828B1F3
:10427000476800F0A1F93846002FF9D100232B60E0
:10428000049B20681A46002342F8283028B147686A
:1042900000F092F93846002FF9D100222260029AEC
:1042A00033781146002241F8042F039A0291023B11
:1042B0004FF0000122F81810032B06D8DFE803F0B6
:1042C000510251024FF00103337008F10108B8F1B7
:1042D000080F05F1040504F1040406F10106C5D137
:1042E000354B3649059C02940022DFF8D8800A70CD
:1042F000022701261C4611E0B50045F0020245F0F8
:1043000003050021082E49F8321049F835101F4DD9
:1043100000F0B280092F28D00136013718F8012BA0
:1043200004F8042B072E00F097801507E4D500F061
:1043300023F900285CD0B50009EB4612144B49F86C
:1043400035300830506000F017F9002847D045F0AC
:10435000010209EBC2010830194B49F832304860BC
:10436000CBE74FF000033370AFE7034B029CDF88CD
:10437000079821E60864002018650020A067002047
:104380005065002020650020A36500200080FF1FED
:104390008800400024650020C02007402C650020D4
:1043A000F464002074640020D8640020306500208C
:1043B0001064002088670020C42007402165002089
:1043C000C800400064AA000040F2213399423FF443
:1043D000D0AD40F2214399423FF4CBADC6E52C4B22
:1043E0001A7845F00101013249F831001A7084E76A
:1043F000274B1A78B500013249F835001A70A2E748
:10440000244A25491278DF880A70D5E59A7821492F
:104410000A70002A3FF458AE204D214A6F79A2F16C
:104420000806002F18BF1646326812F080017FF48C
:104430004BAEDFF88880B022404603F099FD87F04C
:104440000107184AC6F804806F7132603CE6164BCB
:104450000878DF880790AFE5144A1549C9F8E420C9
:10446000C9F8EC200022C9F8E010C9F8E810C9F832
:10447000F020C9F8F8204FE705EBC2060A4F0D48B7
:104480000D4B45F83200029CFF887360079893E556
:1044900021650020A26500202465002030650020F1
:1044A000D880FF1F8000B00018650020C0390020B0
:1044B0008000B40080000300BC390020743A002062
:1044C0002DE9F843204C01F02DF9002204F5847009
:1044D00023461A605A60083383424FF00001F8D136
:1044E0001A4A1B4F13681B4D1B481C4EDFF878807F
:1044F000DFF878C0DFF87890DFF878E043F48023C5
:104500001360C4F307233B70C4F307432B70240EDE
:10451000FF2302F528320470114D88F8003011484D
:104520008CF80030D4323370012389F800307026C3
:104530008EF800104FF40074102107F8183C2E700C
:1045400004601170BDE8F8830080FF1F34800440D0
:104550009C200740B0200740B420074010200740AF
:1045600049E400E008E100E080200740882007409F
:10457000942007400021074072B60D480268B2FA45
:1045800082F31D2B10DC4FF00041D94022EA0102DA
:10459000026062B6074803EBC303DB00C2180021C8
:1045A000C15010465160704762B60020704700BF8E
:1045B00084460020283B00200D4B0E4AC31AA2FB64
:1045C00003231B091D2B0CD80B4A127852B972B663
:1045D0000A484FF00041026821FA03F31A430260CF
:1045E00062B67047064A1278002AF0D0FFF76EB91B
:1045F000283B0020398EE3382165002084460020C6
:104600002C650020094B1B787BB910B5084C21683C
:1046100009B14B8803B910BD9B000B800420FFF744
:104620009DF9FFF7A9FF206010BD70473865002095
:104630003C65002038B50F4D286878B14388028862
:10464000C118013393420C7A02D24380204638BD10
:10465000FFF7B2FF002320462B6038BD064B1B78C6
:104660002BB10220FFF7FEF828600028E6D14FF0BA
:10467000FF3038BD4C6500202C65002010B5094C7A
:10468000206818B143881844007A10BD064B1B7887
:104690002BB10220FFF7E6F820600028F2D14FF09E
:1046A000FF3010BD4C6500202C650020044B054AEE
:1046B0001B6850881BB11A885B88D31A184470474E
:1046C0004C650020886700200B4B1B789BB110B510
:1046D0000A4C206848B1FFF76FFF002302202360D7
:1046E000FFF7C0F830B1FFF767FF0220FFF7BAF815
:1046F0000028F8D110BD70472C6500204C650020C3
:104700002DE9F04FDFF8F89083B0012289F80020FE
:10471000019169B3DFF8EC80364F019E8346D8F8EB
:104720000000B0B3344D4488C4F14001B14228BF09
:10473000314604EB010E00221FFA8EFE2A70761A13
:10474000A0F802E000F1080251B1013C22445944B2
:104750001BF8014B02F8014F8B45F9D1B0F802E08C
:10476000BEF13F0F0BD8254A05211170002ED6D17E
:104770000198002389F8003003B0BDE8F08F402293
:10478000028001460320FFF7E9F80022C8F8002064
:10479000E9E73A782AB3184D48F601444FF0010A88
:1047A00007E0013C16D02A78A2B900F09FFD3A78C4
:1047B000BAB10320FFF774F80728F2D889F800A0EF
:1047C000FFF7DAFEC8F800000028ACD10C4B013C22
:1047D0001870E8D101234FF0FF302B7003B0BDE813
:1047E000F08F00234FF0FF3089F8003003B0BDE8B0
:1047F000F08F00BF2C650020486500204065002038
:10480000416500204465002000B583B002AB012162
:1048100003F8010D1846FFF773FF03B05DF804FBC2
:1048200038B50E4D0E4C28680123237028B14088FE
:1048300000232370C0F1400038BD0A4B1B7813B928
:104840000020207038BD0320FFF72AF80728F7D88A
:10485000FFF792FE28600028E9D1F1E744650020C7
:10486000416500202C650020F8B5114B1B788BB1F9
:10487000104E114D346801272F7064B10F4A6388C0
:1048800000271770214623800320FFF767F8376061
:1048900000232B70F8BDFFF76FFE084B28B10146CF
:1048A00003201C70FFF75AF8F2E71F70F0E700BF13
:1048B0002C650020446500204165002040650020F3
:1048C00038B50E4B1B7873B90D4C216861B103F0FC
:1048D000FF054B880B800320FFF740F8256038BDAB
:1048E000084B01221A7038BDFFF746FE0028F7D0AA
:1048F0000146BDE838400320FFF730B8416500208D
:104900004465002040650020C029F0B428BFC021C4
:1049100072B6114B114E1860002333607360B360A0
:10492000F36033617361012799B15D0903F01F04DE
:1049300056F8252007FA04F4013322438B4246F847
:104940002520F2D10023437001338B4200F58270A1
:10495000F9D162B6F0BC70475C6500206465002048
:1049600070B472B6204B196821B9596821B3043369
:10497000202200E000221D4E3478B1FA81F54FF07C
:104980000040E8400134E4B221EA000034701860CD
:1049900062B6531B03EB83139A00154B1549186835
:1049A00002F5FB531C330122C2540A78A242184478
:1049B00038BF0C7070BC7047996821B9D96829B1AB
:1049C0000C336022D7E708334022D4E7196921B9B4
:1049D000596929B11433A022CDE710338022CAE7E8
:1049E00062B60846E6E700BF646500206165002006
:1049F0005C65002058650020427872B60378012B70
:104A000003D9013B037062B6704770B456110A4D6A
:104A10000A4C55F826102378D2434FF0004002F09C
:104A20001F0220FA02F21143013B45F826102370C1
:104A300062B670BC704700BF6465002061650020ED
:104A4000C368B3B130B401E0DB688BB1187A90422F
:104A5000FAD158685C7A006950F82450002DF3D1DF
:104A600040F82410087801300870DB68002BEDD185
:104A700030BC7047437A8B4206D90369002253F851
:104A8000210043F8212070470020704738B5437A51
:104A90008B421AD9036953F82140002243F82120A0
:104AA0009CB12378012B0ED9FFF75AFF054628B198
:104AB0004FF48072211D0430FEF756FA2378013B33
:104AC0002370284638BD204638BD002038BD00BFC1
:104AD0004368427A5B7A9A420ED872B60168CA6815
:104AE0000AB90AE01A46D368002BFBD1D0604268AD
:104AF00001230B72137262B67047C860F7E700BFFC
:104B0000084B1A7862B930B407480849D0250570B7
:104B10004FF0804401220C6010461A7030BC704780
:104B200000207047606500205EE400E008E100E0DE
:104B30001A491B4A1B48F8B50B681B4D046843F023
:104B400080730B60136843F0010313602E6814B97F
:104B500015E064699CB1237A002BFAD023682F6892
:104B60001B68204698472B68E188DB1B1B099AB21B
:104B70008B42A28088BFE2806469002CEBD10A4B93
:104B80000A4A1B6810880A4C9B1B1B0999B2834276
:104B9000218001D91180F8BDF8BD00BFFCED00E017
:104BA000001000E054650020041000E06265002061
:104BB0007C650020F0B572B699B902688AB10379B4
:104BC0000F2B0ED8274C218841FA03F5ED070AD5A3
:104BD00003F1007303F59063B2EB431F03D162B698
:104BE000F0BD204C2188002341FA03F212F00102AB
:104BF00007D00133102BF7D162B600220371026097
:104C0000F0BD01259D402943218062B6164E174D07
:104C1000174FDFF864E0D9B20171346844F0020440
:104C200034602C6844F002042C60A6F580268224AF
:104C3000A5F5802503F100733C6003F59063223EE7
:104C4000243D0C4C8EF800105B01317029702170EE
:104C500003601A605A609A60DA601A615A619A6158
:104C6000DA61F0BD7E650020408004403C80044055
:104C7000008000401F8000401A80004003790F2B05
:104C800011D8094A10B4137072B6084904790A8819
:104C90000123A34022EA03030B8062B61022002303
:104CA00010BC0271036070471A8000407E650020CE
:104CB00010B4EFF3108272B6437F33B9017F01293C
:104CC00007D003290FD00123437702B962B610BC85
:104CD0007047124C2168A1B1114943610B6883618F
:104CE00008605861EFE70F4C216881B10E494361BC
:104CF0000B688361086058610C4B4FF0805119605C
:104D0000E1E7074B4161816120601860DBE7064BFA
:104D10004161816120601860EEE700BF906500206E
:104D20008C650020806500208465002004ED00E093
:104D300070B5EFF3108272B60C4C206880B10C4E47
:104D400000254369236073B19D6102B962B645775E
:104D500083689847EFF3108272B620680028F0D17C
:104D600002B962B670BD3360EFE700BF8065002016
:104D700084650020FFF7DCBF184A30B41468002CAB
:104D800027D0036821688B420ED2CB1A00218460A1
:104D9000C1602360E06010600223037530BC70477F
:104DA00011688B42144608D3A2685B1A0360002A7C
:104DB000F6D18260C460A060EEE7D268C260846011
:104DC000E060C568CB1A0222A8602360027530BC7F
:104DD00070478460C4601060DEE700BF8865002013
:104DE000F8B5224E34682CB32368002B3AD1204FFB
:104DF0001D4604E03468ECB12368002B32D1A3686F
:104E000003B1DD6020693360036825751B68BB4210
:104E100021D1037F4560022BC46020D0FFF748FFFB
:104E20006368002BE6D023602046FFF7A5FF3468B7
:104E3000002CE1D1EFF3108372B60E4A0021106806
:104E4000116003B962B628B18468FFF795FF204668
:104E50000028F9D1F8BD224600219847E0E7836891
:104E60009847DDE7013B2360E4E700BF8865002049
:104E7000C919000098650020024A136801331360C5
:104E8000FFF7AEBF0864002000B5064A0368128829
:104E90005B6883B001A9ADF804200222984703B0F3
:104EA0005DF804FB38AA0000F0B507468BB0002A75
:104EB00033D0012A08BF0A2251B3212400E0F4B202
:104EC000B1FBF2F502FB1511C8B2092900F130015E
:104ED00098BFC8B20AA988BF3730214488BFC0B282
:104EE00001F8240C661E2946002DE8D133B1013C9F
:104EF000E4B20AAB23442D2203F8242C3B6801AA18
:104F000011195B683846C4F1220298470BB0F0BD16
:104F100030228DF825202124E8E70368C9B21B68F8
:104F200098470BB0F0BD00BF0029BABF49422D23FE
:104F300000230A22FFF7B8BF08B5FBF703FBFBF716
:104F400019FC00F0D3F9FAE702F052BD00EB83033D
:104F50009842F0B50AD32DE050F8044B21F8024BEB
:104F600083424FEA144422F8024B23D98C07F3D42E
:104F7000A3F1080E704512D250F8087B50F8046C6B
:104F8000340C2404BDB244EA174445EA0645704592
:104F900041F8045B42F8044BEED383420FD950F83A
:104FA000044B21F8024B83424FEA144422F8024B8F
:104FB000F5D8F0BDA3F1080E7045DDD3F0BDF0BD0E
:104FC000514B2DE9F04FB3F80080DFF850B14F4B53
:104FD000DBF8004001221A704D4B83B08608C246B0
:104FE0001D68002C4ED0002D55D0002E5CD0C8F18D
:104FF0008007BE42C0F08380464B0193DFF82081DA
:10500000DFF814910FBBD8F80030002B37D1D9F856
:1050100000204B46002A32D1C8F800401D60FFF73F
:105020009FFC0446002845D0FFF79AFC054600285F
:1050300049D0374BCBF800401860002E33D07F2E7C
:105040004FF0000A4FF0800749D94FEA4A032A1D62
:10505000211D1A44194401983B46FFF777FF019A36
:10506000D8F8003002EB8702F61B019223B9D9F879
:105070000020294B002ACFD0234B57441F8003B078
:10508000BDE8F08FFFF76CFC04460028F7D0CBF8A2
:105090000000002DA9D1FFF763FC05460028EED0E3
:1050A0001B4B1860A1E7B046174BA3F8008003B074
:1050B000BDE8F08F164BCBF800001860124B18803B
:1050C00003B0BDE8F08F2046FFF796FC104BCBF8FD
:1050D00000501D600C4B1D8003B0BDE8F08FD04622
:1050E00053462A1D211D1A44194401983346FFF7DF
:1050F0002DFF054B46441E8003B0BDE8F08F054AE6
:1051000001924FEA4803ECE7C4650020B465002033
:105110009C650020C0390020A4650020B0650020F7
:10512000B8650020354A2DE9F04F13680133082B8C
:1051300083B051D81360B02301934FF02C0A30494B
:10514000DFF8D0B04FF000080868C8EB0A03002869
:1051500049D0BBF800E02B4AD2F80090CEF1800293
:10516000934228BF1346051D4FEA4E0209F104077A
:10517000154417444FEA88066BB1234A043E16448F
:105180001C4637F902CB35F8022B013C42EA0C42AF
:1051900046F8042FF5D19E44BEF17F0F984407D8FE
:1051A000ABF800E0C245CFD8019803B0BDE8F08F5E
:1051B0000091FFF721FC4846FFF71EFC13480099B9
:1051C0000368134A0B60002314680360ABF80030D7
:1051D00013600C4B1C60E5E700231360B4230193BC
:1051E0004FF02D0AABE7084C01469A0004EB48004B
:1051F00002F0BEFE019803B0BDE8F08F9446002097
:10520000A8650020BC650020743A0020C06500201D
:10521000AC650020A06500200378A12B01D0002000
:105220007047C378012B12D0022BF8D14378812B21
:1052300018D0822B1DD0832B0FD0842BEFD10120CF
:10524000002308704B7002231360012070470B4845
:1052500040680870184613607047FF200F230870DD
:105260004B70F0E7054B986808709B681B124B70F9
:10527000E9E700230B704B70E5E700BF884600208C
:105280000378212B01D000207047C3784078012B90
:105290000DD0022BF7D10128F5D110B40B784C7842
:1052A000064A03EB04239360106010BC704701288A
:1052B000E9D1024B0A7883E8050070478846002050
:1052C000FFF702BAFFF7DAB9FFF7B4B9FFF7EEB9A3
:1052D000FFF7CABAFFF7A4BA08461146FFF710BA9B
:1052E0000846FFF791BA00BF704700BF38B5224C9F
:1052F000237803B138BD01232370FFF7D7F970BBC2
:1053000000F068F840BB00F0FBF810BB00F08EF92D
:10531000E0B900232370EFF30583002BEAD1EFF30C
:10532000108172B6154B1868E0B1154C2278CAB9D5
:1053300045691D6001232370C5B1AA6101B962B638
:1053400000254577836898472570D3E700F030FA49
:10535000DFE700F02BFAD9E700F026FAD3E7FFF7F2
:10536000C3FFCDE70029C5D162B638BD054B1D602E
:105370000029E5D1E3E700BFC66500209065002065
:10538000946500208C650020F0B44D1E2E4600244C
:1053900000E00134B0FBF2F302FB1300092800F136
:1053A00030078ABF3730F8B2C0B206F8010F18468E
:1053B000002BEED10A1953704CB1107815F8016F1B
:1053C00028700133E01A834202F80169F5DB0846D0
:1053D000F0BC7047054A064B10781B78C0B2DBB2B0
:1053E000984238BF4030C01A704700BFCC650020DB
:1053F000CD650020F0B4384B1A7912F0300F2CD064
:1054000072B6997D01F0FF0200293DD062B6334F9C
:10541000334938780D78334E1C46C0B2EDB2431C88
:10542000402BE17928BF0023AB4202F1FF32C9B221
:105430001CBFF154184612F0FF02F0D12A4B1B6832
:10544000C2B23A704BB1A84236BFC5F14005401B0D
:1054500040192728C4BF01221A701F49CA78D2B246
:10546000150616D452060DD51B4B1B795B0609D5C4
:105470001E4B1F491B6800220A7003B11A70164B9D
:105480003C22DA70F0BC70474022D9795A7462B677
:10549000E3E70B791C06E5D5164B174E1C783378DD
:1054A000E4B2DBB29C420ED0144D01E0A3420AD01C
:1054B0000133402B28BF00230879E85CC0B2C871D3
:1054C000087D0728F2D9DBB2034933700B7918063F
:1054D00044BF7C23CB70C5E700A00640CC6500200C
:1054E000CD65002010660020C865002054660020AD
:1054F000506600205866002051660020D0650020CC
:10550000054A064B10781B78C0B2DBB2984238BF10
:105510004030C01A704700BFCC6600206166002092
:10552000F0B4384B1A7912F0300F2CD072B6997D46
:1055300001F0FF0200293DD062B6334F334938787D
:105540000D78334E1C46C0B2EDB2431C402BE179BE
:1055500028BF0023AB4202F1FF32C9B21CBFF15495
:10556000184612F0FF02F0D12A4B1B68C2B23A7003
:105570004BB1A84236BFC5F14005401B4019272852
:10558000C4BF01221A701F49CA78D2B2150616D4B8
:1055900052060DD51B4B1B795B0609D51E4B1F49C7
:1055A0001B6800220A7003B11A70164B3C22DA7095
:1055B000F0BC70474022D9795A7462B6E3E70B79A0
:1055C0001C06E5D5164B174E1C783378E4B2DBB2D7
:1055D0009C420ED0144D01E0A3420AD00133282B87
:1055E00028BF00230879E85CC0B2C871087D07288D
:1055F000F2D9DBB2034933700B79180644BF7C2320
:10560000CB70C5E700B00640CC6600206166002084
:105610008C6600205C660020D0660020606600205A
:10562000D4660020CD66002064660020054A064B43
:1056300010781B78C0B2DBB2984238BF4030C01A35
:10564000704700BFDC660020DD66002030B42B4BC5
:105650001A7994061FD52A48DA7903782949013343
:105660003F2B0978C8BF00238B42D2B203D0264C0F
:10567000D9B2E2540170254A116861B1244A127806
:10568000D2B2934236BFC2F140029B1A9B18272B1D
:10569000C4BF01230B70194AD378DBB2180611D4AA
:1056A0005A060DD5154B1B795B0609D5194B1A49BE
:1056B0001B6800220A7003B11A70104B2C22DA709A
:1056C00030BC704711790906EAD5144910480C78A6
:1056D0000178C9B28C420DD04A1C272A84BF002110
:1056E0000A460F4D054C98BFD1B2AA5CD2B2E27106
:1056F0000170D5E76C21D170D2E700BF00C0064031
:10570000DC660020DD66002008670020D8660020E7
:10571000496700204C670020486700205067002040
:10572000E066002070B584B072B6194B194D1A4866
:10573000702241260F2480211A702E701A460470A0
:10574000197013781B06FCD5144B186862B6144BFD
:10575000144C984298BF00EB800001A998BF40000C
:105760000A22FFF711FE01A92046002311F8012BA0
:1057700001333AB10A2B20F8022FF7D116232370F8
:1057800004B070BD5B00DBB2237004B070BD00BF1D
:1057900000000240070002400600024008000240EC
:1057A0007F96980054480020704700BF704700BFA4
:1057B000704700BF30B51F4A21F00043934287B0C5
:1057C0001BDD1D4A934205DD02460B4601F046F9FA
:1057D00007B030BD02AA00F033F800F00300012842
:1057E000DDE904231AD002280FD0E0B1DDE902017F
:1057F00000F04AFA01F10041EAE700230093002299
:10580000002300F05DFF07B030BD0124DDE9020197
:10581000009400F055FF01F10041D9E7DDE90201F4
:1058200000F032FAD4E70124DDE90201009400F02F
:1058300047FFCDE7FB21E93FFFFFEF7FFFFFFFFFC2
:105840002DE9F04F944E21F00047B74291B040F35C
:1058500082809246914A97420C4626DC002984A316
:10586000D3E9002340F3A88101F0F8F88C4B9F4264
:1058700004460D4600F084807FA3D3E9002301F0A5
:10588000EDF802460B46CAE900232046294601F0FE
:10589000E5F879A3D3E9002301F0E0F80125CAE98E
:1058A0000201284611B0BDE8F08F7E4A974240F3CE
:1058B00084807D4A974259DC3D15A5F21645A7EB39
:1058C000055319461F46064601F016FD01F014FA6D
:1058D0008046894602460B4630463946CDE90A895C
:1058E00001F0BCF80022714B01F06CFA8946804649
:1058F00001F002FD01F000FA02460B4606460F4693
:1059000040464946CDE90C6701F0A8F80022674BF4
:1059100001F058FA00220023CDE90E0101F0BAFC93
:10592000002800F07581002330463946002201F03E
:10593000B1FC002814BF012302235D4A0192022119
:1059400000912A4651460AA800F0C2FA002CC0F283
:105950005181054606E0C2E9000100250024C2E9A4
:1059600002450025284611B0BDE8F08F02460B46DF
:1059700001F074F80025CAE90201CAE90001F1E763
:105980003FA3D3E9002301F069F83FA3D3E9002343
:105990000D46044601F062F802460B46CAE90023B0
:1059A0002946204601F05AF837A3D3E9002301F035
:1059B00055F80125CAE90201D4E700F037FF34A306
:1059C000D3E900238046894601F0FCF90022394BD7
:1059D00001F046F801F090FC054601F08DF924A392
:1059E000D3E90023CDE9040101F0ECF902460B46AE
:1059F0004046494601F032F81FA3D3E90023804610
:105A00008946DDE9040101F0DDF91F2DCDE9020130
:105A100054DC294B6A1E53F822309F424ED0024676
:105A20000B464046494601F019F802460B46CAE9C2
:105A3000002383460E465A4633464046494601F007
:105A40000DF8DDE9022301F009F8002C02460B46AF
:105A5000CAE9022386DA5B4606F1004601F10041FD
:105A60008AE84800CAF80C10CAF808006D4279E7C5
:105A700000004054FB21F93F3163621A61B4D03D0C
:105A80000000601A61B4D03D7370032E8A19A33BE5
:105A900083C8C96D305FE43FFB21E93F7BD90240F9
:105AA000FB21F93FFB213941FFFFEF7F00007041EF
:105AB00040AB00000000E03FC0AA0000DDE9022387
:105AC0004046494600F0CAFF3A15C1F30A53D31ABB
:105AD000102B83460E460992CAE90001ABDD5EA396
